:020000040800F2
:100000007006002089010008910100089301000892
:100010009501000897010008990100080000000000
:100020000000000000000000000000009B0100082C
:100030009D010008000000009F010008A1010008C8
:10004000A3010008A3010008A3010008A301000800
:10005000A3010008A3010008A3010008A3010008F0
:10006000A3010008A3010008A3010008A3010008E0
:10007000A3010008A3010008A3010008A3010008D0
:10008000A3010008A3010008A3010008A3010008C0
:10009000A3010008A3010008A3010008A3010008B0
:1000A000A3010008A3010008A3010008A3010008A0
:1000B000A3010008A3010008A3010008A301000890
:1000C000A3010008A3010008A3010008A301000880
:1000D000A3010008A3010008A3010008A301000870
:1000E000A3010008A3010008A301000800F002F822
:1000F00000F03AF80AA090E8000C82448344AAF188
:100100000107DA4501D100F02FF8AFF2090EBAE885
:100110000F0013F0010F18BFFB1A43F0010318473B
:100120007C0500009C050000103A24BF78C878C107
:10013000FAD8520724BF30C830C144BF04680C60ED
:10014000704700000023002400250026103A28BF35
:1001500078C1FBD8520728BF30C148BF0B60704739
:100160001FB51FBD10B510BD00F031F81146FFF7E7
:10017000F7FF00F059FA00F04FF803B4FFF7F2FF71
:1001800003BC00F057F800000948804709480047C1
:10019000FEE7FEE7FEE7FEE7FEE7FEE7FEE7FEE737
:1001A000FEE7FEE704480549054A064B7047000094
:1001B0007D050008ED00000870000020700600209A
:1001C000700200207002002070477047704775462B
:1001D00000F02CF8AE4605006946534620F00700B3
:1001E000854618B020B5FFF7DDFFBDE820404FF091
:1001F00000064FF000074FF000084FF0000B21F011
:100200000701AC46ACE8C009ACE8C009ACE8C009DD
:10021000ACE8C0098D46704710B50446AFF30080C6
:100220002046BDE81040FFF7A8BF00000048704717
:100230000C00002001491820ABBEFEE7260002009A
:10024000704700000D48806940F008000B49886144
:100250000B48006840F040600949086008460068A3
:1002600040F0407008600846006840F04040086078
:100270000846006840F04050086070470010024097
:10028000000C01400E48C06940F400100C49C861E0
:1002900000200C4908800846008840F008000880CB
:1002A00028200849183108800920091D08800548C0
:1002B000001F008840F001000249091F08807047B4
:1002C000001002400454004000BF264A128802F089
:1002D0000202002AF9D1234A183A128842F48072A5
:1002E000204B183B1A8000BF1E4A121F128802F0D2
:1002F0000102002AF8D01B4A121F12881A4B1A60FA
:10030000002242EA4002174B083B1A8000BF154A00
:10031000121F128802F00202002AF8D0114A121F9E
:100320001288114B1A600F4A12881A6000BF0D4ADA
:10033000121F128802F08002002AF8D0094A083AF7
:10034000118000BF074A121F128802F00402002A1F
:10035000F8D0044A183A128842F40072014B183B54
:100360001A807047185400400800002010B5044659
:100370000448007820F0010002490870204600F08F
:1003800071F810BD0400002010B504460448007840
:1003900040F0010002490870204600F063F810BDEB
:1003A0000400002000B50E48007840F004000C491D
:1003B0000870084601782720FFF786FF012000F02B
:1003C0000DF90748007820F0040005490870084638
:1003D00001782720FFF778FF012000F0FFF800BD2B
:1003E0000400002000B5022000F0F8F8164800785C
:1003F00040F00800144908700846007820F0020018
:100400000870022000F0EAF83320FFF7AFFF0A205F
:1004100000F0E4F83220FFF7A9FF0A2000F0DEF830
:100420002820FFF7A3FF022000F0D8F80C20FFF7E8
:100430009DFF012000F0D2F80120FFF797FF0A206E
:1004400000F0CCF800BD00000400002030B50446E8
:10045000002503E0605DFFF797FF6D1C605D0028DD
:10046000F8D130BD10B504460948007800F00F00FF
:1004700004F0F001084306490870FFF793FF0448B1
:10048000007864F31F1002490870FFF78BFF10BD5E
:100490000400002010B500F001F810BD0CB50020DC
:1004A000019000903348006840F480303149086082
:1004B00000BF3048006800F4003000900198401CF4
:1004C0000190009818B90198B0F5A06FF1D12948B2
:1004D000006800F4003010B10120009001E000201D
:1004E00000900098012843D12348006840F0100094
:1004F000214908600846006820F0030008600846AB
:10050000006840F0020008601A48406819494860D5
:100510000846406848600846406840F4806048608B
:100520000846406820F47C1048600846406840F463
:10053000E81048600846006840F08070086000BF1E
:100540000C48006800F000700028F9D009484068A5
:1005500020F00300074948600846406840F0020068
:10056000486000BF0348406800F00C000828F9D13B
:100570000CBD0000001002400020024010B51348DE
:10058000006840F0010011490860084640681049C1
:1005900008400E494860084600680E4908400B496B
:1005A00008600846006820F480200860084640681B
:1005B00020F4FE0048604FF41F008860FFF76AFFD8
:1005C0004FF000600449086010BD000000100240B8
:1005D0000000FFF8FFFFF6FE08ED00E020E04FF01E
:1005E000E021096921F004014FF0E022116142F29B
:1005F000283151611146096941F00101116100BFC3
:100600004FF0E021096901F480310029F8D04FF062
:10061000E021096921F001014FF0E0221161401E43
:100620000028DCD170470000FFF70CFEFFF72AFE20
:10063000FFF7D8FE8020FFF799FE11A0FFF706FF15
:10064000C020FFF793FE11A0FFF700FF17E012484C
:100650000078401C1049087008460078092801D12C
:1006600000200870CA20FFF781FE0B49097830315D
:10067000C8B2FFF789FE4FF47A70FFF7AFFFE6E7E5
:100680004C6170205472696E680000004E68756E8F
:100690006720415A0000000000000020BC0600084E
:1006A000000000200C00000028010008C806000817
:1006B0000C00002064060000440100080000000057
:0806C000000000000000000032
:04000005080000ED02
:00000001FF
